:100000000C9434000C943E000C943E000C943E0082
:100010000C943E000C943E000C943E000C943E0068
:100020000C943E000C943E000C943E000C943E0058
:100030000C943E000C943E000C943E000C943E0048
:100040000C943E000C943E000C943E000C943E0038
:100050000C943E000C943E000C943E000C943E0028
:100060000C943E000C943E0011241FBECFEFD8E04C
:10007000DEBFCDBF0E9493000C94B8000C9400002A
:1000800080E480937C0087E880937A0008959091C3
:100090007C00907E90937C0090917C008770892BEF
:1000A00080937C0080917C00806280937C008091B2
:1000B0007A00806480937A0080917A0084FFFCCF7C
:1000C00080917A00806180937A00209178008091FD
:1000D0007900229526952695237030E090E0880FD0
:1000E000991F880F991F282B392BC9010895259A2C
:1000F000089520E030E040E951E02D9888EE93E04B
:10010000FA013197F1F70197D9F72D9A88EE93E02C
:10011000FA013197F1F70197D9F72F5F3F4F2A3056
:10012000310559F708950E9477000E94AA000E94A5
:10013000400080E00E9447008115924010F00E942C
:10014000790081E00E9447008B32914090F30E9439
:100150007900EFCFE0E8F0E08081816A808381E080
:1001600080938100219A229A8AB18F608AB908957A
:04017000F894FFCF31
:00000001FF
